{
  "_format": "hh-sol-artifact-1",
  "contractName": "RoomMaker",
  "sourceName": "contracts/RoomMaker.sol",
  "abi": [
    {
      "inputs": [],
      "stateMutability": "nonpayable",
      "type": "constructor"
    },
    {
      "anonymous": false,
      "inputs": [
        {
          "indexed": true,
          "internalType": "address",
          "name": "owner",
          "type": "address"
        },
        {
          "indexed": true,
          "internalType": "address",
          "name": "approved",
          "type": "address"
        },
        {
          "indexed": true,
          "internalType": "uint256",
          "name": "tokenId",
          "type": "uint256"
        }
      ],
      "name": "Approval",
      "type": "event"
    },
    {
      "anonymous": false,
      "inputs": [
        {
          "indexed": true,
          "internalType": "address",
          "name": "owner",
          "type": "address"
        },
        {
          "indexed": true,
          "internalType": "address",
          "name": "operator",
          "type": "address"
        },
        {
          "indexed": false,
          "internalType": "bool",
          "name": "approved",
          "type": "bool"
        }
      ],
      "name": "ApprovalForAll",
      "type": "event"
    },
    {
      "anonymous": false,
      "inputs": [
        {
          "indexed": true,
          "internalType": "address",
          "name": "previousOwner",
          "type": "address"
        },
        {
          "indexed": true,
          "internalType": "address",
          "name": "newOwner",
          "type": "address"
        }
      ],
      "name": "OwnershipTransferred",
      "type": "event"
    },
    {
      "anonymous": false,
      "inputs": [
        {
          "indexed": false,
          "internalType": "address",
          "name": "account",
          "type": "address"
        }
      ],
      "name": "Paused",
      "type": "event"
    },
    {
      "anonymous": false,
      "inputs": [
        {
          "indexed": true,
          "internalType": "address",
          "name": "from",
          "type": "address"
        },
        {
          "indexed": true,
          "internalType": "address",
          "name": "to",
          "type": "address"
        },
        {
          "indexed": true,
          "internalType": "uint256",
          "name": "tokenId",
          "type": "uint256"
        }
      ],
      "name": "Transfer",
      "type": "event"
    },
    {
      "anonymous": false,
      "inputs": [
        {
          "indexed": false,
          "internalType": "address",
          "name": "account",
          "type": "address"
        }
      ],
      "name": "Unpaused",
      "type": "event"
    },
    {
      "inputs": [
        {
          "internalType": "address",
          "name": "to",
          "type": "address"
        },
        {
          "internalType": "uint256",
          "name": "tokenId",
          "type": "uint256"
        }
      ],
      "name": "approve",
      "outputs": [],
      "stateMutability": "nonpayable",
      "type": "function"
    },
    {
      "inputs": [
        {
          "internalType": "address",
          "name": "owner",
          "type": "address"
        }
      ],
      "name": "balanceOf",
      "outputs": [
        {
          "internalType": "uint256",
          "name": "",
          "type": "uint256"
        }
      ],
      "stateMutability": "view",
      "type": "function"
    },
    {
      "inputs": [
        {
          "internalType": "uint256",
          "name": "tokenId",
          "type": "uint256"
        }
      ],
      "name": "burn",
      "outputs": [],
      "stateMutability": "nonpayable",
      "type": "function"
    },
    {
      "inputs": [
        {
          "internalType": "uint256",
          "name": "tokenId",
          "type": "uint256"
        }
      ],
      "name": "getApproved",
      "outputs": [
        {
          "internalType": "address",
          "name": "",
          "type": "address"
        }
      ],
      "stateMutability": "view",
      "type": "function"
    },
    {
      "inputs": [
        {
          "internalType": "address",
          "name": "user",
          "type": "address"
        }
      ],
      "name": "getBalance",
      "outputs": [
        {
          "internalType": "uint256",
          "name": "",
          "type": "uint256"
        }
      ],
      "stateMutability": "view",
      "type": "function"
    },
    {
      "inputs": [],
      "name": "getCount",
      "outputs": [
        {
          "internalType": "uint256",
          "name": "",
          "type": "uint256"
        }
      ],
      "stateMutability": "view",
      "type": "function"
    },
    {
      "inputs": [
        {
          "internalType": "uint256",
          "name": "tokenId",
          "type": "uint256"
        }
      ],
      "name": "getOwner",
      "outputs": [
        {
          "internalType": "address",
          "name": "",
          "type": "address"
        }
      ],
      "stateMutability": "view",
      "type": "function"
    },
    {
      "inputs": [
        {
          "internalType": "address",
          "name": "owner",
          "type": "address"
        },
        {
          "internalType": "address",
          "name": "operator",
          "type": "address"
        }
      ],
      "name": "isApprovedForAll",
      "outputs": [
        {
          "internalType": "bool",
          "name": "",
          "type": "bool"
        }
      ],
      "stateMutability": "view",
      "type": "function"
    },
    {
      "inputs": [],
      "name": "maxPerWallet",
      "outputs": [
        {
          "internalType": "uint256",
          "name": "",
          "type": "uint256"
        }
      ],
      "stateMutability": "view",
      "type": "function"
    },
    {
      "inputs": [],
      "name": "mintPrice",
      "outputs": [
        {
          "internalType": "uint256",
          "name": "",
          "type": "uint256"
        }
      ],
      "stateMutability": "view",
      "type": "function"
    },
    {
      "inputs": [
        {
          "internalType": "string",
          "name": "metadataURI",
          "type": "string"
        }
      ],
      "name": "mintToken",
      "outputs": [
        {
          "internalType": "uint256",
          "name": "",
          "type": "uint256"
        }
      ],
      "stateMutability": "payable",
      "type": "function"
    },
    {
      "inputs": [],
      "name": "name",
      "outputs": [
        {
          "internalType": "string",
          "name": "",
          "type": "string"
        }
      ],
      "stateMutability": "view",
      "type": "function"
    },
    {
      "inputs": [],
      "name": "owner",
      "outputs": [
        {
          "internalType": "address",
          "name": "",
          "type": "address"
        }
      ],
      "stateMutability": "view",
      "type": "function"
    },
    {
      "inputs": [
        {
          "internalType": "uint256",
          "name": "tokenId",
          "type": "uint256"
        }
      ],
      "name": "ownerOf",
      "outputs": [
        {
          "internalType": "address",
          "name": "",
          "type": "address"
        }
      ],
      "stateMutability": "view",
      "type": "function"
    },
    {
      "inputs": [],
      "name": "pause",
      "outputs": [],
      "stateMutability": "nonpayable",
      "type": "function"
    },
    {
      "inputs": [],
      "name": "paused",
      "outputs": [
        {
          "internalType": "bool",
          "name": "",
          "type": "bool"
        }
      ],
      "stateMutability": "view",
      "type": "function"
    },
    {
      "inputs": [],
      "name": "renounceOwnership",
      "outputs": [],
      "stateMutability": "nonpayable",
      "type": "function"
    },
    {
      "inputs": [
        {
          "internalType": "address",
          "name": "from",
          "type": "address"
        },
        {
          "internalType": "address",
          "name": "to",
          "type": "address"
        },
        {
          "internalType": "uint256",
          "name": "tokenId",
          "type": "uint256"
        }
      ],
      "name": "safeTransferFrom",
      "outputs": [],
      "stateMutability": "nonpayable",
      "type": "function"
    },
    {
      "inputs": [
        {
          "internalType": "address",
          "name": "from",
          "type": "address"
        },
        {
          "internalType": "address",
          "name": "to",
          "type": "address"
        },
        {
          "internalType": "uint256",
          "name": "tokenId",
          "type": "uint256"
        },
        {
          "internalType": "bytes",
          "name": "data",
          "type": "bytes"
        }
      ],
      "name": "safeTransferFrom",
      "outputs": [],
      "stateMutability": "nonpayable",
      "type": "function"
    },
    {
      "inputs": [
        {
          "internalType": "address",
          "name": "operator",
          "type": "address"
        },
        {
          "internalType": "bool",
          "name": "approved",
          "type": "bool"
        }
      ],
      "name": "setApprovalForAll",
      "outputs": [],
      "stateMutability": "nonpayable",
      "type": "function"
    },
    {
      "inputs": [
        {
          "internalType": "uint256",
          "name": "maxPerWallet_",
          "type": "uint256"
        }
      ],
      "name": "setMaxPerWallet",
      "outputs": [],
      "stateMutability": "nonpayable",
      "type": "function"
    },
    {
      "inputs": [
        {
          "internalType": "uint256",
          "name": "mintPrice_",
          "type": "uint256"
        }
      ],
      "name": "setMintPrice",
      "outputs": [],
      "stateMutability": "nonpayable",
      "type": "function"
    },
    {
      "inputs": [
        {
          "internalType": "bytes4",
          "name": "interfaceId",
          "type": "bytes4"
        }
      ],
      "name": "supportsInterface",
      "outputs": [
        {
          "internalType": "bool",
          "name": "",
          "type": "bool"
        }
      ],
      "stateMutability": "view",
      "type": "function"
    },
    {
      "inputs": [],
      "name": "symbol",
      "outputs": [
        {
          "internalType": "string",
          "name": "",
          "type": "string"
        }
      ],
      "stateMutability": "view",
      "type": "function"
    },
    {
      "inputs": [
        {
          "internalType": "uint256",
          "name": "tokenId",
          "type": "uint256"
        }
      ],
      "name": "tokenURI",
      "outputs": [
        {
          "internalType": "string",
          "name": "",
          "type": "string"
        }
      ],
      "stateMutability": "view",
      "type": "function"
    },
    {
      "inputs": [
        {
          "internalType": "address",
          "name": "from",
          "type": "address"
        },
        {
          "internalType": "address",
          "name": "to",
          "type": "address"
        },
        {
          "internalType": "uint256",
          "name": "tokenId",
          "type": "uint256"
        }
      ],
      "name": "transferFrom",
      "outputs": [],
      "stateMutability": "nonpayable",
      "type": "function"
    },
    {
      "inputs": [
        {
          "internalType": "address",
          "name": "newOwner",
          "type": "address"
        }
      ],
      "name": "transferOwnership",
      "outputs": [],
      "stateMutability": "nonpayable",
      "type": "function"
    },
    {
      "inputs": [],
      "name": "unpause",
      "outputs": [],
      "stateMutability": "nonpayable",
      "type": "function"
    },
    {
      "inputs": [],
      "name": "withdraw",
      "outputs": [],
      "stateMutability": "nonpayable",
      "type": "function"
    }
  ],
  "bytecode": "0x60806040523480156200001157600080fd5b506040518060400160405280600981526020017f526f6f6d4d616b657200000000000000000000000000000000000000000000008152506040518060400160405280600481526020017f524d4b5200000000000000000000000000000000000000000000000000000000815250816000908051906020019062000096929190620001d7565b508060019080519060200190620000af929190620001d7565b5050506000600760006101000a81548160ff021916908315150217905550620000ed620000e16200010960201b60201c565b6200011160201b60201c565b662386f26fc100006008819055506005600981905550620002ec565b600033905090565b6000600760019054906101000a900473ffffffffffffffffffffffffffffffffffffffff16905081600760016101000a81548173ffffffffffffffffffffffffffffffffffffffff021916908373ffffffffffffffffffffffffffffffffffffffff1602179055508173ffffffffffffffffffffffffffffffffffffffff168173ffffffffffffffffffffffffffffffffffffffff167f8be0079c531659141344cd1fd0a4f28419497f9722a3daafe3b4186f6b6457e060405160405180910390a35050565b828054620001e590620002b6565b90600052602060002090601f01602090048101928262000209576000855562000255565b82601f106200022457805160ff191683800117855562000255565b8280016001018555821562000255579182015b828111156200025457825182559160200191906001019062000237565b5b50905062000264919062000268565b5090565b5b808211156200028357600081600090555060010162000269565b5090565b7f4e487b7100000000000000000000000000000000000000000000000000000000600052602260045260246000fd5b60006002820490506001821680620002cf57607f821691505b60208210811415620002e657620002e562000287565b5b50919050565b6137dd80620002fc6000396000f3fe6080604052600436106101c25760003560e01c806370a08231116100f7578063b88d4fde11610095578063e985e9c511610064578063e985e9c51461060d578063f2fde38b1461064a578063f4a0a52814610673578063f8b2cb4f1461069c576101c2565b8063b88d4fde14610541578063c41a360a1461056a578063c87b56dd146105a7578063e268e4d3146105e4576101c2565b80638da5cb5b116100d15780638da5cb5b1461049757806395d89b41146104c2578063a22cb465146104ed578063a87d942c14610516576101c2565b806370a082311461042c578063715018a6146104695780638456cb5914610480576101c2565b80633f4ba83a11610164578063453c23101161013e578063453c23101461036e5780635c975abb146103995780636352211e146103c45780636817c76c14610401576101c2565b80633f4ba83a1461030557806342842e0e1461031c57806342966c6814610345576101c2565b8063095ea7b3116101a0578063095ea7b31461026c57806323b872dd1461029557806333eba49a146102be5780633ccfd60b146102ee576101c2565b806301ffc9a7146101c757806306fdde0314610204578063081812fc1461022f575b600080fd5b3480156101d357600080fd5b506101ee60048036038101906101e99190612460565b6106d9565b6040516101fb91906124a8565b60405180910390f35b34801561021057600080fd5b506102196107bb565b604051610226919061255c565b60405180910390f35b34801561023b57600080fd5b50610256600480360381019061025191906125b4565b61084d565b6040516102639190612622565b60405180910390f35b34801561027857600080fd5b50610293600480360381019061028e9190612669565b610893565b005b3480156102a157600080fd5b506102bc60048036038101906102b791906126a9565b6109ab565b005b6102d860048036038101906102d39190612831565b610a0b565b6040516102e59190612889565b60405180910390f35b3480156102fa57600080fd5b50610303610ae1565b005b34801561031157600080fd5b5061031a610b9f565b005b34801561032857600080fd5b50610343600480360381019061033e91906126a9565b610bb1565b005b34801561035157600080fd5b5061036c600480360381019061036791906125b4565b610bd1565b005b34801561037a57600080fd5b50610383610c2d565b6040516103909190612889565b60405180910390f35b3480156103a557600080fd5b506103ae610c33565b6040516103bb91906124a8565b60405180910390f35b3480156103d057600080fd5b506103eb60048036038101906103e691906125b4565b610c4a565b6040516103f89190612622565b60405180910390f35b34801561040d57600080fd5b50610416610cfc565b6040516104239190612889565b60405180910390f35b34801561043857600080fd5b50610453600480360381019061044e91906128a4565b610d02565b6040516104609190612889565b60405180910390f35b34801561047557600080fd5b5061047e610dba565b005b34801561048c57600080fd5b50610495610dce565b005b3480156104a357600080fd5b506104ac610de0565b6040516104b99190612622565b60405180910390f35b3480156104ce57600080fd5b506104d7610e0a565b6040516104e4919061255c565b60405180910390f35b3480156104f957600080fd5b50610514600480360381019061050f91906128fd565b610e9c565b005b34801561052257600080fd5b5061052b610eb2565b6040516105389190612889565b60405180910390f35b34801561054d57600080fd5b50610568600480360381019061056391906129de565b610ec3565b005b34801561057657600080fd5b50610591600480360381019061058c91906125b4565b610f25565b60405161059e9190612622565b60405180910390f35b3480156105b357600080fd5b506105ce60048036038101906105c991906125b4565b610f37565b6040516105db919061255c565b60405180910390f35b3480156105f057600080fd5b5061060b600480360381019061060691906125b4565b610f49565b005b34801561061957600080fd5b50610634600480360381019061062f9190612a61565b610f5b565b60405161064191906124a8565b60405180910390f35b34801561065657600080fd5b50610671600480360381019061066c91906128a4565b610fef565b005b34801561067f57600080fd5b5061069a600480360381019061069591906125b4565b611073565b005b3480156106a857600080fd5b506106c360048036038101906106be91906128a4565b611085565b6040516106d09190612889565b60405180910390f35b60007f80ac58cd000000000000000000000000000000000000000000000000000000007bffffffffffffffffffffffffffffffffffffffffffffffffffffffff1916827bffffffffffffffffffffffffffffffffffffffffffffffffffffffff191614806107a457507f5b5e139f000000000000000000000000000000000000000000000000000000007bffffffffffffffffffffffffffffffffffffffffffffffffffffffff1916827bffffffffffffffffffffffffffffffffffffffffffffffffffffffff1916145b806107b457506107b382611097565b5b9050919050565b6060600080546107ca90612ad0565b80601f01602080910402602001604051908101604052809291908181526020018280546107f690612ad0565b80156108435780601f1061081857610100808354040283529160200191610843565b820191906000526020600020905b81548152906001019060200180831161082657829003601f168201915b5050505050905090565b600061085882611101565b6004600083815260200190815260200160002060009054906101000a900473ffffffffffffffffffffffffffffffffffffffff169050919050565b600061089e82610c4a565b90508073ffffffffffffffffffffffffffffffffffffffff168373ffffffffffffffffffffffffffffffffffffffff16141561090f576040517f08c379a000000000000000000000000000000000000000000000000000000000815260040161090690612b74565b60405180910390fd5b8073ffffffffffffffffffffffffffffffffffffffff1661092e61114c565b73ffffffffffffffffffffffffffffffffffffffff16148061095d575061095c8161095761114c565b610f5b565b5b61099c576040517f08c379a000000000000000000000000000000000000000000000000000000000815260040161099390612c06565b60405180910390fd5b6109a68383611154565b505050565b6109bc6109b661114c565b8261120d565b6109fb576040517f08c379a00000000000000000000000000000000000000000000000000000000081526004016109f290612c98565b60405180910390fd5b610a068383836112a2565b505050565b6000610a15611509565b6000339050600854341015610a5f576040517f08c379a0000000000000000000000000000000000000000000000000000000008152600401610a5690612d04565b60405180910390fd5b600954610a6b82610d02565b10610aab576040517f08c379a0000000000000000000000000000000000000000000000000000000008152600401610aa290612d70565b60405180910390fd5b6000610ab7600a611553565b9050610ac3600a611561565b610acd8282611577565b610ad78185611595565b8092505050919050565b610ae9611609565b6000610af3610de0565b73ffffffffffffffffffffffffffffffffffffffff1647604051610b1690612dc1565b60006040518083038185875af1925050503d8060008114610b53576040519150601f19603f3d011682016040523d82523d6000602084013e610b58565b606091505b5050905080610b9c576040517f08c379a0000000000000000000000000000000000000000000000000000000008152600401610b9390612e22565b60405180910390fd5b50565b610ba7611609565b610baf611687565b565b610bcc83838360405180602001604052806000815250610ec3565b505050565b610be2610bdc61114c565b8261120d565b610c21576040517f08c379a0000000000000000000000000000000000000000000000000000000008152600401610c1890612c98565b60405180910390fd5b610c2a816116ea565b50565b60095481565b6000600760009054906101000a900460ff16905090565b6000806002600084815260200190815260200160002060009054906101000a900473ffffffffffffffffffffffffffffffffffffffff169050600073ffffffffffffffffffffffffffffffffffffffff168173ffffffffffffffffffffffffffffffffffffffff161415610cf3576040517f08c379a0000000000000000000000000000000000000000000000000000000008152600401610cea90612e8e565b60405180910390fd5b80915050919050565b60085481565b60008073ffffffffffffffffffffffffffffffffffffffff168273ffffffffffffffffffffffffffffffffffffffff161415610d73576040517f08c379a0000000000000000000000000000000000000000000000000000000008152600401610d6a90612f20565b60405180910390fd5b600360008373ffffffffffffffffffffffffffffffffffffffff1673ffffffffffffffffffffffffffffffffffffffff168152602001908152602001600020549050919050565b610dc2611609565b610dcc60006116f6565b565b610dd6611609565b610dde6117bc565b565b6000600760019054906101000a900473ffffffffffffffffffffffffffffffffffffffff16905090565b606060018054610e1990612ad0565b80601f0160208091040260200160405190810160405280929190818152602001828054610e4590612ad0565b8015610e925780601f10610e6757610100808354040283529160200191610e92565b820191906000526020600020905b815481529060010190602001808311610e7557829003601f168201915b5050505050905090565b610eae610ea761114c565b838361181f565b5050565b6000610ebe600a611553565b905090565b610ed4610ece61114c565b8361120d565b610f13576040517f08c379a0000000000000000000000000000000000000000000000000000000008152600401610f0a90612c98565b60405180910390fd5b610f1f8484848461198c565b50505050565b6000610f3082610c4a565b9050919050565b6060610f42826119e8565b9050919050565b610f51611609565b8060098190555050565b6000600560008473ffffffffffffffffffffffffffffffffffffffff1673ffffffffffffffffffffffffffffffffffffffff16815260200190815260200160002060008373ffffffffffffffffffffffffffffffffffffffff1673ffffffffffffffffffffffffffffffffffffffff16815260200190815260200160002060009054906101000a900460ff16905092915050565b610ff7611609565b600073ffffffffffffffffffffffffffffffffffffffff168173ffffffffffffffffffffffffffffffffffffffff161415611067576040517f08c379a000000000000000000000000000000000000000000000000000000000815260040161105e90612fb2565b60405180910390fd5b611070816116f6565b50565b61107b611609565b8060088190555050565b600061109082610d02565b9050919050565b60007f01ffc9a7000000000000000000000000000000000000000000000000000000007bffffffffffffffffffffffffffffffffffffffffffffffffffffffff1916827bffffffffffffffffffffffffffffffffffffffffffffffffffffffff1916149050919050565b61110a81611afb565b611149576040517f08c379a000000000000000000000000000000000000000000000000000000000815260040161114090612e8e565b60405180910390fd5b50565b600033905090565b816004600083815260200190815260200160002060006101000a81548173ffffffffffffffffffffffffffffffffffffffff021916908373ffffffffffffffffffffffffffffffffffffffff160217905550808273ffffffffffffffffffffffffffffffffffffffff166111c783610c4a565b73ffffffffffffffffffffffffffffffffffffffff167f8c5be1e5ebec7d5bd14f71427d1e84f3dd0314c0f7b2291e5b200ac8c7c3b92560405160405180910390a45050565b60008061121983610c4a565b90508073ffffffffffffffffffffffffffffffffffffffff168473ffffffffffffffffffffffffffffffffffffffff16148061125b575061125a8185610f5b565b5b8061129957508373ffffffffffffffffffffffffffffffffffffffff166112818461084d565b73ffffffffffffffffffffffffffffffffffffffff16145b91505092915050565b8273ffffffffffffffffffffffffffffffffffffffff166112c282610c4a565b73ffffffffffffffffffffffffffffffffffffffff1614611318576040517f08c379a000000000000000000000000000000000000000000000000000000000815260040161130f90613044565b60405180910390fd5b600073ffffffffffffffffffffffffffffffffffffffff168273ffffffffffffffffffffffffffffffffffffffff161415611388576040517f08c379a000000000000000000000000000000000000000000000000000000000815260040161137f906130d6565b60405180910390fd5b611393838383611b67565b61139e600082611154565b6001600360008573ffffffffffffffffffffffffffffffffffffffff1673ffffffffffffffffffffffffffffffffffffffff16815260200190815260200160002060008282546113ee9190613125565b925050819055506001600360008473ffffffffffffffffffffffffffffffffffffffff1673ffffffffffffffffffffffffffffffffffffffff16815260200190815260200160002060008282546114459190613159565b92505081905550816002600083815260200190815260200160002060006101000a81548173ffffffffffffffffffffffffffffffffffffffff021916908373ffffffffffffffffffffffffffffffffffffffff160217905550808273ffffffffffffffffffffffffffffffffffffffff168473ffffffffffffffffffffffffffffffffffffffff167fddf252ad1be2c89b69c2b068fc378daa952ba7f163c4a11628f55a4df523b3ef60405160405180910390a4611504838383611b7f565b505050565b611511610c33565b15611551576040517f08c379a0000000000000000000000000000000000000000000000000000000008152600401611548906131fb565b60405180910390fd5b565b600081600001549050919050565b6001816000016000828254019250508190555050565b611591828260405180602001604052806000815250611b84565b5050565b61159e82611afb565b6115dd576040517f08c379a00000000000000000000000000000000000000000000000000000000081526004016115d49061328d565b60405180910390fd5b80600660008481526020019081526020016000209080519060200190611604929190612311565b505050565b61161161114c565b73ffffffffffffffffffffffffffffffffffffffff1661162f610de0565b73ffffffffffffffffffffffffffffffffffffffff1614611685576040517f08c379a000000000000000000000000000000000000000000000000000000000815260040161167c906132f9565b60405180910390fd5b565b61168f611bdf565b6000600760006101000a81548160ff0219169083151502179055507f5db9ee0a495bf2e6ff9c91a7834c1ba4fdd244a5e8aa4e537bd38aeae4b073aa6116d361114c565b6040516116e09190612622565b60405180910390a1565b6116f381611c28565b50565b6000600760019054906101000a900473ffffffffffffffffffffffffffffffffffffffff16905081600760016101000a81548173ffffffffffffffffffffffffffffffffffffffff021916908373ffffffffffffffffffffffffffffffffffffffff1602179055508173ffffffffffffffffffffffffffffffffffffffff168173ffffffffffffffffffffffffffffffffffffffff167f8be0079c531659141344cd1fd0a4f28419497f9722a3daafe3b4186f6b6457e060405160405180910390a35050565b6117c4611509565b6001600760006101000a81548160ff0219169083151502179055507f62e78cea01bee320cd4e420270b5ea74000d11b0c9f74754ebdbfc544b05a25861180861114c565b6040516118159190612622565b60405180910390a1565b8173ffffffffffffffffffffffffffffffffffffffff168373ffffffffffffffffffffffffffffffffffffffff16141561188e576040517f08c379a000000000000000000000000000000000000000000000000000000000815260040161188590613365565b60405180910390fd5b80600560008573ffffffffffffffffffffffffffffffffffffffff1673ffffffffffffffffffffffffffffffffffffffff16815260200190815260200160002060008473ffffffffffffffffffffffffffffffffffffffff1673ffffffffffffffffffffffffffffffffffffffff16815260200190815260200160002060006101000a81548160ff0219169083151502179055508173ffffffffffffffffffffffffffffffffffffffff168373ffffffffffffffffffffffffffffffffffffffff167f17307eab39ab6107e8899845ad3d59bd9653f200f220920489ca2b5937696c318360405161197f91906124a8565b60405180910390a3505050565b6119978484846112a2565b6119a384848484611c7b565b6119e2576040517f08c379a00000000000000000000000000000000000000000000000000000000081526004016119d9906133f7565b60405180910390fd5b50505050565b60606119f382611101565b6000600660008481526020019081526020016000208054611a1390612ad0565b80601f0160208091040260200160405190810160405280929190818152602001828054611a3f90612ad0565b8015611a8c5780601f10611a6157610100808354040283529160200191611a8c565b820191906000526020600020905b815481529060010190602001808311611a6f57829003601f168201915b505050505090506000611a9d611e12565b9050600081511415611ab3578192505050611af6565b600082511115611ae8578082604051602001611ad0929190613453565b60405160208183030381529060405292505050611af6565b611af184611e29565b925050505b919050565b60008073ffffffffffffffffffffffffffffffffffffffff166002600084815260200190815260200160002060009054906101000a900473ffffffffffffffffffffffffffffffffffffffff1673ffffffffffffffffffffffffffffffffffffffff1614159050919050565b611b6f611509565b611b7a838383611e91565b505050565b505050565b611b8e8383611e96565b611b9b6000848484611c7b565b611bda576040517f08c379a0000000000000000000000000000000000000000000000000000000008152600401611bd1906133f7565b60405180910390fd5b505050565b611be7610c33565b611c26576040517f08c379a0000000000000000000000000000000000000000000000000000000008152600401611c1d906134c3565b60405180910390fd5b565b611c3181612070565b6000600660008381526020019081526020016000208054611c5190612ad0565b905014611c7857600660008281526020019081526020016000206000611c779190612397565b5b50565b6000611c9c8473ffffffffffffffffffffffffffffffffffffffff1661218d565b15611e05578373ffffffffffffffffffffffffffffffffffffffff1663150b7a02611cc561114c565b8786866040518563ffffffff1660e01b8152600401611ce79493929190613538565b602060405180830381600087803b158015611d0157600080fd5b505af1925050508015611d3257506040513d601f19601f82011682018060405250810190611d2f9190613599565b60015b611db5573d8060008114611d62576040519150601f19603f3d011682016040523d82523d6000602084013e611d67565b606091505b50600081511415611dad576040517f08c379a0000000000000000000000000000000000000000000000000000000008152600401611da4906133f7565b60405180910390fd5b805181602001fd5b63150b7a0260e01b7bffffffffffffffffffffffffffffffffffffffffffffffffffffffff1916817bffffffffffffffffffffffffffffffffffffffffffffffffffffffff191614915050611e0a565b600190505b949350505050565b606060405180602001604052806000815250905090565b6060611e3482611101565b6000611e3e611e12565b90506000815111611e5e5760405180602001604052806000815250611e89565b80611e68846121b0565b604051602001611e79929190613453565b6040516020818303038152906040525b915050919050565b505050565b600073ffffffffffffffffffffffffffffffffffffffff168273ffffffffffffffffffffffffffffffffffffffff161415611f06576040517f08c379a0000000000000000000000000000000000000000000000000000000008152600401611efd90613612565b60405180910390fd5b611f0f81611afb565b15611f4f576040517f08c379a0000000000000000000000000000000000000000000000000000000008152600401611f469061367e565b60405180910390fd5b611f5b60008383611b67565b6001600360008473ffffffffffffffffffffffffffffffffffffffff1673ffffffffffffffffffffffffffffffffffffffff1681526020019081526020016000206000828254611fab9190613159565b92505081905550816002600083815260200190815260200160002060006101000a81548173ffffffffffffffffffffffffffffffffffffffff021916908373ffffffffffffffffffffffffffffffffffffffff160217905550808273ffffffffffffffffffffffffffffffffffffffff16600073ffffffffffffffffffffffffffffffffffffffff167fddf252ad1be2c89b69c2b068fc378daa952ba7f163c4a11628f55a4df523b3ef60405160405180910390a461206c60008383611b7f565b5050565b600061207b82610c4a565b905061208981600084611b67565b612094600083611154565b6001600360008373ffffffffffffffffffffffffffffffffffffffff1673ffffffffffffffffffffffffffffffffffffffff16815260200190815260200160002060008282546120e49190613125565b925050819055506002600083815260200190815260200160002060006101000a81549073ffffffffffffffffffffffffffffffffffffffff021916905581600073ffffffffffffffffffffffffffffffffffffffff168273ffffffffffffffffffffffffffffffffffffffff167fddf252ad1be2c89b69c2b068fc378daa952ba7f163c4a11628f55a4df523b3ef60405160405180910390a461218981600084611b7f565b5050565b6000808273ffffffffffffffffffffffffffffffffffffffff163b119050919050565b606060008214156121f8576040518060400160405280600181526020017f3000000000000000000000000000000000000000000000000000000000000000815250905061230c565b600082905060005b6000821461222a5780806122139061369e565b915050600a826122239190613716565b9150612200565b60008167ffffffffffffffff81111561224657612245612706565b5b6040519080825280601f01601f1916602001820160405280156122785781602001600182028036833780820191505090505b5090505b60008514612305576001826122919190613125565b9150600a856122a09190613747565b60306122ac9190613159565b60f81b8183815181106122c2576122c1613778565b5b60200101907effffffffffffffffffffffffffffffffffffffffffffffffffffffffffffff1916908160001a905350600a856122fe9190613716565b945061227c565b8093505050505b919050565b82805461231d90612ad0565b90600052602060002090601f01602090048101928261233f5760008555612386565b82601f1061235857805160ff1916838001178555612386565b82800160010185558215612386579182015b8281111561238557825182559160200191906001019061236a565b5b50905061239391906123d7565b5090565b5080546123a390612ad0565b6000825580601f106123b557506123d4565b601f0160209004906000526020600020908101906123d391906123d7565b5b50565b5b808211156123f05760008160009055506001016123d8565b5090565b6000604051905090565b600080fd5b600080fd5b60007fffffffff0000000000000000000000000000000000000000000000000000000082169050919050565b61243d81612408565b811461244857600080fd5b50565b60008135905061245a81612434565b92915050565b600060208284031215612476576124756123fe565b5b60006124848482850161244b565b91505092915050565b60008115159050919050565b6124a28161248d565b82525050565b60006020820190506124bd6000830184612499565b92915050565b600081519050919050565b600082825260208201905092915050565b60005b838110156124fd5780820151818401526020810190506124e2565b8381111561250c576000848401525b50505050565b6000601f19601f8301169050919050565b600061252e826124c3565b61253881856124ce565b93506125488185602086016124df565b61255181612512565b840191505092915050565b600060208201905081810360008301526125768184612523565b905092915050565b6000819050919050565b6125918161257e565b811461259c57600080fd5b50565b6000813590506125ae81612588565b92915050565b6000602082840312156125ca576125c96123fe565b5b60006125d88482850161259f565b91505092915050565b600073ffffffffffffffffffffffffffffffffffffffff82169050919050565b600061260c826125e1565b9050919050565b61261c81612601565b82525050565b60006020820190506126376000830184612613565b92915050565b61264681612601565b811461265157600080fd5b50565b6000813590506126638161263d565b92915050565b600080604083850312156126805761267f6123fe565b5b600061268e85828601612654565b925050602061269f8582860161259f565b9150509250929050565b6000806000606084860312156126c2576126c16123fe565b5b60006126d086828701612654565b93505060206126e186828701612654565b92505060406126f28682870161259f565b9150509250925092565b600080fd5b600080fd5b7f4e487b7100000000000000000000000000000000000000000000000000000000600052604160045260246000fd5b61273e82612512565b810181811067ffffffffffffffff8211171561275d5761275c612706565b5b80604052505050565b60006127706123f4565b905061277c8282612735565b919050565b600067ffffffffffffffff82111561279c5761279b612706565b5b6127a582612512565b9050602081019050919050565b82818337600083830152505050565b60006127d46127cf84612781565b612766565b9050828152602081018484840111156127f0576127ef612701565b5b6127fb8482856127b2565b509392505050565b600082601f830112612818576128176126fc565b5b81356128288482602086016127c1565b91505092915050565b600060208284031215612847576128466123fe565b5b600082013567ffffffffffffffff81111561286557612864612403565b5b61287184828501612803565b91505092915050565b6128838161257e565b82525050565b600060208201905061289e600083018461287a565b92915050565b6000602082840312156128ba576128b96123fe565b5b60006128c884828501612654565b91505092915050565b6128da8161248d565b81146128e557600080fd5b50565b6000813590506128f7816128d1565b92915050565b60008060408385031215612914576129136123fe565b5b600061292285828601612654565b9250506020612933858286016128e8565b9150509250929050565b600067ffffffffffffffff82111561295857612957612706565b5b61296182612512565b9050602081019050919050565b600061298161297c8461293d565b612766565b90508281526020810184848401111561299d5761299c612701565b5b6129a88482856127b2565b509392505050565b600082601f8301126129c5576129c46126fc565b5b81356129d584826020860161296e565b91505092915050565b600080600080608085870312156129f8576129f76123fe565b5b6000612a0687828801612654565b9450506020612a1787828801612654565b9350506040612a288782880161259f565b925050606085013567ffffffffffffffff811115612a4957612a48612403565b5b612a55878288016129b0565b91505092959194509250565b60008060408385031215612a7857612a776123fe565b5b6000612a8685828601612654565b9250506020612a9785828601612654565b9150509250929050565b7f4e487b7100000000000000000000000000000000000000000000000000000000600052602260045260246000fd5b60006002820490506001821680612ae857607f821691505b60208210811415612afc57612afb612aa1565b5b50919050565b7f4552433732313a20617070726f76616c20746f2063757272656e74206f776e6560008201527f7200000000000000000000000000000000000000000000000000000000000000602082015250565b6000612b5e6021836124ce565b9150612b6982612b02565b604082019050919050565b60006020820190508181036000830152612b8d81612b51565b9050919050565b7f4552433732313a20617070726f76652063616c6c6572206973206e6f7420746f60008201527f6b656e206f776e6572206e6f7220617070726f76656420666f7220616c6c0000602082015250565b6000612bf0603e836124ce565b9150612bfb82612b94565b604082019050919050565b60006020820190508181036000830152612c1f81612be3565b9050919050565b7f4552433732313a2063616c6c6572206973206e6f7420746f6b656e206f776e6560008201527f72206e6f7220617070726f766564000000000000000000000000000000000000602082015250565b6000612c82602e836124ce565b9150612c8d82612c26565b604082019050919050565b60006020820190508181036000830152612cb181612c75565b9050919050565b7f496e636f7272656374206d696e742076616c7565000000000000000000000000600082015250565b6000612cee6014836124ce565b9150612cf982612cb8565b602082019050919050565b60006020820190508181036000830152612d1d81612ce1565b9050919050565b7f4d6178696d756d206d696e747320726561636865640000000000000000000000600082015250565b6000612d5a6015836124ce565b9150612d6582612d24565b602082019050919050565b60006020820190508181036000830152612d8981612d4d565b9050919050565b600081905092915050565b50565b6000612dab600083612d90565b9150612db682612d9b565b600082019050919050565b6000612dcc82612d9e565b9150819050919050565b7f5769746864726177206661696c65640000000000000000000000000000000000600082015250565b6000612e0c600f836124ce565b9150612e1782612dd6565b602082019050919050565b60006020820190508181036000830152612e3b81612dff565b9050919050565b7f4552433732313a20696e76616c696420746f6b656e2049440000000000000000600082015250565b6000612e786018836124ce565b9150612e8382612e42565b602082019050919050565b60006020820190508181036000830152612ea781612e6b565b9050919050565b7f4552433732313a2061646472657373207a65726f206973206e6f74206120766160008201527f6c6964206f776e65720000000000000000000000000000000000000000000000602082015250565b6000612f0a6029836124ce565b9150612f1582612eae565b604082019050919050565b60006020820190508181036000830152612f3981612efd565b9050919050565b7f4f776e61626c653a206e6577206f776e657220697320746865207a65726f206160008201527f6464726573730000000000000000000000000000000000000000000000000000602082015250565b6000612f9c6026836124ce565b9150612fa782612f40565b604082019050919050565b60006020820190508181036000830152612fcb81612f8f565b9050919050565b7f4552433732313a207472616e736665722066726f6d20696e636f72726563742060008201527f6f776e6572000000000000000000000000000000000000000000000000000000602082015250565b600061302e6025836124ce565b915061303982612fd2565b604082019050919050565b6000602082019050818103600083015261305d81613021565b9050919050565b7f4552433732313a207472616e7366657220746f20746865207a65726f2061646460008201527f7265737300000000000000000000000000000000000000000000000000000000602082015250565b60006130c06024836124ce565b91506130cb82613064565b604082019050919050565b600060208201905081810360008301526130ef816130b3565b9050919050565b7f4e487b7100000000000000000000000000000000000000000000000000000000600052601160045260246000fd5b60006131308261257e565b915061313b8361257e565b92508282101561314e5761314d6130f6565b5b828203905092915050565b60006131648261257e565b915061316f8361257e565b9250827fffffffffffffffffffffffffffffffffffffffffffffffffffffffffffffffff038211156131a4576131a36130f6565b5b828201905092915050565b7f5061757361626c653a2070617573656400000000000000000000000000000000600082015250565b60006131e56010836124ce565b91506131f0826131af565b602082019050919050565b60006020820190508181036000830152613214816131d8565b9050919050565b7f45524337323155524953746f726167653a2055524920736574206f66206e6f6e60008201527f6578697374656e7420746f6b656e000000000000000000000000000000000000602082015250565b6000613277602e836124ce565b91506132828261321b565b604082019050919050565b600060208201905081810360008301526132a68161326a565b9050919050565b7f4f776e61626c653a2063616c6c6572206973206e6f7420746865206f776e6572600082015250565b60006132e36020836124ce565b91506132ee826132ad565b602082019050919050565b60006020820190508181036000830152613312816132d6565b9050919050565b7f4552433732313a20617070726f766520746f2063616c6c657200000000000000600082015250565b600061334f6019836124ce565b915061335a82613319565b602082019050919050565b6000602082019050818103600083015261337e81613342565b9050919050565b7f4552433732313a207472616e7366657220746f206e6f6e20455243373231526560008201527f63656976657220696d706c656d656e7465720000000000000000000000000000602082015250565b60006133e16032836124ce565b91506133ec82613385565b604082019050919050565b60006020820190508181036000830152613410816133d4565b9050919050565b600081905092915050565b600061342d826124c3565b6134378185613417565b93506134478185602086016124df565b80840191505092915050565b600061345f8285613422565b915061346b8284613422565b91508190509392505050565b7f5061757361626c653a206e6f7420706175736564000000000000000000000000600082015250565b60006134ad6014836124ce565b91506134b882613477565b602082019050919050565b600060208201905081810360008301526134dc816134a0565b9050919050565b600081519050919050565b600082825260208201905092915050565b600061350a826134e3565b61351481856134ee565b93506135248185602086016124df565b61352d81612512565b840191505092915050565b600060808201905061354d6000830187612613565b61355a6020830186612613565b613567604083018561287a565b818103606083015261357981846134ff565b905095945050505050565b60008151905061359381612434565b92915050565b6000602082840312156135af576135ae6123fe565b5b60006135bd84828501613584565b91505092915050565b7f4552433732313a206d696e7420746f20746865207a65726f2061646472657373600082015250565b60006135fc6020836124ce565b9150613607826135c6565b602082019050919050565b6000602082019050818103600083015261362b816135ef565b9050919050565b7f4552433732313a20746f6b656e20616c7265616479206d696e74656400000000600082015250565b6000613668601c836124ce565b915061367382613632565b602082019050919050565b600060208201905081810360008301526136978161365b565b9050919050565b60006136a98261257e565b91507fffffffffffffffffffffffffffffffffffffffffffffffffffffffffffffffff8214156136dc576136db6130f6565b5b600182019050919050565b7f4e487b7100000000000000000000000000000000000000000000000000000000600052601260045260246000fd5b60006137218261257e565b915061372c8361257e565b92508261373c5761373b6136e7565b5b828204905092915050565b60006137528261257e565b915061375d8361257e565b92508261376d5761376c6136e7565b5b828206905092915050565b7f4e487b7100000000000000000000000000000000000000000000000000000000600052603260045260246000fdfea2646970667358221220fdaca120900fd02c030e577556041b44e9105a3788a0e31d2889b1b4c1e8b87d64736f6c63430008090033",
  "linkReferences": {},
  "deployedLinkReferences": {}
}